:020000040800F2
:100000009007002039350008DD330008DF33000891
:10001000E1330008E3330008E53300080000000086
:10002000000000000000000000000000E7330008AE
:10003000E933000800000000EB330008ED3300084E
:100040005D35000861350008653500086935000830
:100050006D350008713500087535000879350008E0
:100060007D3500088135000885350008F13300082A
:1000700089350008F73300088D350008FD33000886
:1000800003340008913500089535000899350008BB
:100090009D350008A1350008A5350008A9350008E0
:1000A000AD350008B1350008B5350008B935000890
:1000B000093400080F340008BD350008C1350008B8
:1000C000C5350008C9350008CD350008D135000810
:1000D000D5350008153400081B3400082134000809
:1000E000D9350008DD350008E135000838B5DFF8FE
:1000F000A049DFF8A039206D002100F089FD34BF50
:10010000012200224FF40041184600F053FE606DBA
:10011000DFF88439002100F07BFD34BF012200228A
:100120004FF48061184600F045FEA568206D00F090
:100130005FFE00F0C2FA80B26863606D00F058FEA6
:1001400000F0BBFA80B2A86331BD2DE9F84FDFF8AB
:100150004C69DFF83079D7F854B0F06E7C6EDFF878
:100160004089DFF84099594600F066FE824619D270
:10017000F86D214600F072FE00F039F842464B4619
:1001800000F0D8FE00F094FF04465046294600F0E7
:10019000C3FF82465846514600F04EFE02D200246C
:1001A000DA46BC655846514600F046FE1AD2386E13
:1001B000214600F053FE00F01AF802460B46404676
:1001C000494600F0B7FE00F073FF0446504629464A
:1001D00001F014F8594600F02FFE824602D20024A6
:1001E000DA46BC657C66C6F86CA0BDE8F18F0546B2
:1001F000BD65204600F0FCBDF8B5DFF8A0586E8C58
:100200008F1BDFF8A4680446378038B201F036F857
:1002100021F000410122DFF8943801F041F898BF45
:10022000DFF88C0810D9DFF88C3801F039F898BF66
:100230004FF0804008D9DFF8803801F031F894BFE2
:10024000DFF878084FF07F50706038B201F040F866
:10025000716800F003FE0646204601F039F8314689
:1002600000F0EAFD38BF06466442204601F030F84F
:100270000146304600F0E0FD38BF0E466E67F1BD26
:100280002DE9F84304460D469046994600F0B0FD2E
:1002900021F000410122DFF81C38DFF8246800F06B
:1002A000FFFF94BF01200220307020467768394656
:1002B00001F020F82FD03078012820D1384621468F
:1002C00000F0BAFD0BD22846494600F0C7FDB060E9
:1002D000394600F021FF07462046394609E04046EE
:1002E000494600F0BBFDB060394600F015FF0746F7
:1002F000214600F0A1FD0ED20020B0600BE00228E4
:1003000009D13846214600F097FD34BF29464146C1
:1003100000F002FF074677603846BDE8F28370B50B
:10032000DFF86C67DFF874573078012805D1B5F92C
:100330002610286FFFF760FF01E0002169676C6FEE
:10034000FFF757FF21F000410122DFF8783700F076
:10035000A7FF98BF4FF07F5010D9DFF8583700F053
:100360009FFF98BFDFF8540708D9DFF84C3700F03B
:1003700097FF94BF4FF07C50DFF84C07E8670146C9
:10038000DFF8483781F000422046FFF779FF044646
:10039000AC67FFF7DAFEED6E2846214600F02EFF2F
:1003A00030652146284600F0B7FE7065BDE8704014
:1003B0009CE630B5DFF8CC46257B6366012D08BF8F
:1003C0004FF080402266E165606530BD2DE9F54F54
:1003D000DFF8BC66DFF8C476DFF8F896F87FB7F987
:1003E0002480DFF8ECA681B0347901288B461D46C5
:1003F00004D10021B1707070002400E03CBBB87FD4
:1004000097F82010012818BF0020012918BF0021EB
:10041000084318BFB07002D1B078012803D1002082
:100420000124707018E04FF0804253464946104650
:10043000FFF7BFFF022C33D100F08AF800F07CF800
:1004400004BF9DF83400A8425BD103242AE0012CAC
:10045000F0D17078002866D19DF834108D421DD0FF
:100460006D1A002DF58009DDB7F9220013306328DD
:1004700009D3012030701E21F98454E0A8F2EB6802
:10048000B8F1630F02D200F05CF84CE0012030704C
:1004900040F21C71F9840022F27044E00224CBE7A0
:1004A000032C2ED100F042F829D0401A0028F08009
:1004B0001ADDA8F25338B8F1630F0FD200F041F8FB
:1004C000052C30D100F032F82AD19DF83400854255
:1004D00026D1012100207170B07024E0012131701B
:1004E000DFF8F405F884EBE7A8F27B38B8F1630F86
:1004F000E4D3012030704FF46B71F984E0E70424F9
:1005000001E0042CDCD100F023F800F015F802BF64
:100510009DF830009DF80810884204D10524D4E7E6
:100520000020012470703471BDE8F78F9DF8080039
:100530009DF8301088427047F86E4FF0804100F00F
:10054000D9BE00203070534601985A46494630E7DC
:1005500053465A4649464FF080402AE77CB5DFF8BB
:100560003C55AE7AEC7A0194009601230122FFF704
:100570002DFF287AB04204BF697AA14203D1DFF887
:100580005C250020107073BDF8B50546DFF85015E6
:1005900028680A68DFF8EC64DFF80045904267D10C
:1005A0002378012B05D004F1280000F025FF00F08E
:1005B000BFFAE0782179DFF82C75A076E1766079D2
:1005C000A1792077617704F11801607E01280CBFC2
:1005D0007A2061202076012206F1100000F0D3FE7F
:1005E000207B617B41EA002161840A2204F18401BD
:1005F000384600F0C8FE00F05BF83178462908BFA5
:10060000002002D00120452901D0012100E0002175
:10061000084304D0384600F0EFFE00F049F8307887
:10062000452818D1B07A452822D17078A0F1300140
:1006300084F82010B078A0F13001A177F078A0F113
:100640003001E177F079A0F130012172707AA0F1E8
:10065000300161720CE0462804BFB07A462807D109
:100660003079A0F13001A172B079A0F13001E172CE
:10067000DFF8741428680A68904218D1D4F8800012
:1006800014288041C00F3073FFF749FE707B0128AA
:1006900004D1DFF8F403DFF8F41301600022727371
:1006A000B4F9220000F0EAFD00F007F8A084F1BDE3
:1006B0000B223146384600F087BE21F0004101F0A0
:1006C00031B92DE9F84795B001F04AF900F03BFA4D
:1006D000102200F07AFADFF81444DFF8B8536068AB
:1006E000DFF8B463DFF8A88340F0200060600022E8
:1006F000606800F0200004900498616841F00401F3
:100700006160606800F0040004900498616841F042
:10071000080161604FF40041606800F00800049037
:100720000498284600F046FB00224FF480613046D2
:1007300000F040FB4FF4004100F0F1F9284600F0D2
:1007400079FA4FF4806100F0EAF9304600F072FA6D
:10075000206840F0010020600022216801F00101C2
:100760000091002100980B2001F026F90B2001F0E8
:1007700040F9002200210D2001F01EF90D2001F0AA
:1007800038F9002200210F2001F016F90F2001F0A6
:1007900030F900220021102001F00EF9102001F0A4
:1007A00028F91022002111A801F04EF900F00CFAEE
:1007B0001C2200F0C4F92022002109A801F044F90C
:1007C000CB48C8F808000921C8F80C100020C8F868
:1007D00010004FF47A71C8F81800C8F81C00C8F867
:1007E0002000C8F8141008F1080001F037F908B12A
:1007F00000F0EFF94FF48055119511A908F10800A8
:1008000001F0FEFA08B100F0E4F908F1080001F087
:1008100073F908B100F0DDF900210091019108F1B0
:100820000800694601F05AFC08B100F0D2F96020D6
:1008300000210290039100220591079104920692F3
:10084000089200F067F908B100F0C3F9042200F043
:1008500061F908B100F0BDF900204FF40051099092
:100860000A900B900C900D900E91109009A908F130
:10087000080001F065FC08B100F0ABF908F10800D0
:1008800001F025FD854C9B48A0624FF41641E162C2
:10089000002020636063A0630C2120646064E16336
:1008A00004F1280000F034FD08B100F092F900F0E6
:1008B00045F900F089F9DFF828924FF08040C9F837
:1008C0000000482142F20F700022C9F80C00C9F85C
:1008D0000410C9F80820C9F81020C9F818204846A3
:1008E00001F0BCF808B100F074F9029502A948467D
:1008F00001F086FA08B100F06CF900210091019135
:100900004846694601F0EAFB08B100F062F900F0E0
:1009100015F900F059F9DFF8D0A17748CAF80000BE
:10092000482140F2E7300022CAF80C00CAF804104F
:10093000CAF80820CAF81020CAF81820504601F05A
:100940008DF808B100F045F9029502A9504601F072
:1009500057FA08B100F03DF900210091019150468D
:10096000694601F0BBFB08B100F033F9454D63481F
:1009700028614FF4E1376F610020A861E8612862C7
:100980000C216962A862E86205F1100000F0C0FC69
:1009900008B100F01EF9534E5948306077600021CD
:1009A000B160F16031610C207061B161F16130467C
:1009B00000F0AEFC08B100F00CF90C2200F005F9D3
:1009C000504F514838600021B96001223A7300202D
:1009D00038754FF46021F96178603A61384601F06A
:1009E00085FD08B100F0F5F800200121009001918B
:1009F000072202926946384601F083FE08B100F0F2
:100A0000E8F8002108F1080001F083F8042108F15A
:100A1000080001F07EF8484601F02DF8504601F03C
:100A20002AF800F085F80A2204F10C0105F1100003
:100A300000F0CAFC0A2204F18401304600F0A3FC55
:100A40000B222946304600F0BFFC012204F1800150
:100A5000384601F0CFFD94F820002C4D50B9E07AD3
:100A6000A17A01900091637A227A29492846FFF7FA
:100A7000ADFCF4E74FF080412846FFF76FFDF9E742
:100A800000000000A00000200CED00E00400FA05CA
:100A900008010020000C0140000801400000002077
:100AA0007B14AE47E17A843F800300200000594068
:100AB0000000404000004940000039406666663F43
:100AC0007403002000C052409A99993E0AD7A33B74
:100AD0000AD7233C0000C0407CFCFFFF88030020B5
:100AE0006001002034020020A80100201410024000
:100AF000002C014000380140000400400044004048
:100B00000048004044030020002401400000484207
:100B10006666E63F02A908F1080001F011B90091EC
:100B2000112201920021029103220392694670472B
:100B30000722214604F1280000F046BC10220021C3
:100B400002A800F081BF00B593B02822002109A8B7
:100B500000F07AFF142200F038F81022002105A8D6
:100B600000F072FF4FF4803100220A910B92119134
:100B7000012009900D9002224FF4E0111092129181
:100B800009A801F0E1FE08B100F023F8022101916B
:100B90000F204FF480610090002203910491029293
:100BA0000221684602F05AF808B172B6FEE7022147
:100BB0004FF480420591079205A802F025F908B18B
:100BC00072B6FEE713B000BD08220021684600F0AF
:100BD0003BBF72B6FEE730B4002513E050F8042B9B
:100BE000D30744BFA9F101039A18091F042942F849
:100BF000045BFAD213468C0744BF15809B1CC907BF
:100C000048BF1D7050F8041B0029E7D130BC704765
:100C10004FF0807C1CEB400F94BF1CEB410F05E0B4
:100C200040EA010C1CEB0C0F01D28142704718BF47
:100C3000884270472DE9F8474FF0000E00245F4AC4
:100C40005F4BDFF880814FF00F0982460CE0D768D8
:100C50003840D06006E095604D68AD02F7D5D068A9
:100C60000743D7600EF1010E0F6837FA0EF000F05F
:100C70009F80012000FA0EF63740B742F2D1486853
:100C800038B301281AD002281DD003282ED01128ED
:100C900016D012281AD04C4DA8421CBF4B4DA8426A
:100CA00017D04B4DA8421CBF4A4DA84211D04A4D07
:100CB000A8421CBF494DA8420BD018E0CC6816E0F2
:100CC000CC68241D13E0CC68083410E0CC680C34E8
:100CD0000DE0886808B9042409E0012819BF082438
:100CE000CAF814600824CAF8106000E00024B7F5C0
:100CF000807F03D250464FEA8E0C05E0AEF1080526
:100D00000AF104004FEA850C056809FA0CF6B543B0
:100D100004FA0CF6354305604868C000A2D5D8F83F
:100D2000000040F00100C8F80000D8F8005005F0BD
:100D3000010500954FEA8E0500984FEA9E0053F892
:100D4000206005F00C0C09FA0CF526EA0505244E86
:100D5000B24508BF00260ED0224EB24508BF01267C
:100D600009D0214EB24508BF022604D01F4EB2451D
:100D70000CBF0326042606FA0CF6354343F8205030
:100D8000F8434D68ED0315684CBF3D4305401560C1
:100D90004D68AD0355684CBF3D43054055604D68F7
:100DA0009668ED024CBF47EA060500EA060552E7E1
:100DB000BDE8F18702B909040161704700040140F0
:100DC000080001401810024000001110000012102D
:100DD000000021100000221000003110000032102D
:100DE00000080140000C01400010014000140140C7
:100DF000C0F3C75181B1FF2906D0C110400721F0CF
:100E0000E04101F16051704741020CBF40F4E00144
:100E10006FF000410020704700F0004100020AD04E
:100E2000B0FA80FC00FA0CF001F16051A1EB0C511A
:100E300001EBD021400570474FF0807C1CEB400F48
:100E400094BF1CEB410F05E040EA010C1CEB0C0FBA
:100E500001D28842704718BF81427047FF2212EAD0
:100E6000D05C1DBF12EAD153944593422BE09C44C1
:100E7000D30780EA01021A4043EA002043EA012135
:100E8000A1FB0030C04238BF40007CF17F010BDB8A
:100E9000FE294ADA5B0842EAC15153EA006373F162
:100EA000004C51EB10207047D1F1080CDCF120010F
:100EB0002FDB5B0810FA01F10B4320FA0CF073F101
:100EC00000415041704794451CBF02EAD153934200
:100ED00080EA010202F000421DD0400019D0490012
:100EE00017D05BB9634514D00902B1FA81F3994078
:100EF000BCEB030CC00140F00040C1E70002B0FAB7
:100F000080FC10FA0CF0B3EB0C0CC90141F000416D
:100F1000B6E71000704740000AD0490008D010F131
:100F2000807F94BF11F1807F02E042F0FF40704764
:100F3000D043704770B44FF0004591EA030F41F180
:100F4000D7876B40841A71EB030604D26E40001BF6
:100F5000B141121973414FF4001C1CEB410F34BF17
:100F60007CEB430683E00C0DA4EB1356362E00F306
:100F70007C80012E45EAC32341DC43EA525312BF71
:100F8000D20292025B08240545EAC12141EA505190
:100F9000D2EBC020994125D407D1B0FA80F610FADF
:100FA00006F162D00020203608E0B1FA81F6B140A7
:100FB000C6F1200220FA02F21143B0404FEAF47465
:100FC000B4EB465434F001064FEA74040AD8D6F55F
:100FD0000016760D04F00044F04061FA06F250402D
:100FE000F1404840C00A40EA415021F0004128BF8A
:100FF0005FEA500550F1000044EBD12135E0DB0AF7
:1010000045EAC121C90AB6F120050EDD42EA0242D5
:10101000120CC5F1200603FA06F6EB4042EA06057B
:101020006D42984161F100010DE062FA06F5F2406F
:10103000554063FA06FC82EA0C02F3405A406D42C6
:10104000904161EB030111F4801F05D1641E62051C
:1010500002D06D004041494121F48011430875F1EF
:10106000004350F1000041EB045170BC70471CEB91
:10107000410F15D223F0004352EA43060BD04FEA4A
:101080004C0CBCEB410F04D80C0D661E342EB7DDA2
:10109000EBE7801A994150EA410608BF0021E4E7D6
:1010A00008BF1CEB430F28BF6FF00001DDE7000015
:1010B00001F000428B1AA3F16051B1F5801F0ADBE9
:1010C000B1F17F6F1FD242EAC102C10071F100414C
:1010D00042EB507070470B15C3F10903212B10D25E
:1010E000890241EA905180020128494141F00041C2
:1010F00021FA03F0C3F12003994071F100415041FE
:101100007047100070476FF0000013EB103F5CBF9A
:10111000000E42EAC050704790EA010F40F174801F
:1011200081F00041431A4FF000423EBF5340C01AC5
:10113000C91800BFD3095FEAD05C13EB400F34BF7E
:10114000B3EB410F40E07CEBD1530CD342EA0121D9
:1011500022D8D1EB402009D3400A28BF5FEA5001D2
:1011600040EBCC507047401A15D04002B0FA80F2E4
:10117000521C9040400A4FEA3C23B3EB026384BF09
:1011800000EB730007E040F400001A16DB07C2F121
:101190000102D04018437047182BFCDC31FA03F2EF
:1011A00002FA03F3591A38BF42F00102D2EB402091
:1011B0003CBF4000ACF1010C5FEACC5CC20572F1AF
:1011C00000414CEB5020704713EB400F0FD2C94247
:1011D00009D0ACEBD153022B03DB4902172BDDDD29
:1011E00070479143401AC042D5D10020704713EB9D
:1011F000410FD0D36FF000007047000090EA010F5C
:101200007FF590AF81F00041421A3CBF801A8918E7
:101210004FF0004CC0F3C752FF2A24D0C1F3C7538C
:1012200013B3D21AD2F1190327DD4CEA01214CFA8B
:1012300003F321EA0303D140C20D4CEA0020401819
:1012400034BF20EA0C004CEA5000D20553EA006398
:1012500073EB0C0C52EB1020420012F1807F38BF70
:101260007047C00DC0057047490212BF9A4200EB9B
:101270005120F8E7D2F11703D9D57047C11768B1EB
:101280004840401AB0FA80F29040D21CC907C2F51B
:10129000846241EA025202EBD0214005704700000F
:1012A0004FF4001C1CEB410F94BF1CEB430F09E0F3
:1012B00041EA030C50EA4C0C52EA0C0C03D28B426C
:1012C00008BF8242704714BF9942904270470000A5
:1012D000C2175040801AB0FA80F10AD08840D1F18C
:1012E0009D01D20742EAC151020672F1004241EB70
:1012F0001020704740EA010C1CEB0C0F07D088420D
:1013000005D14FEA400C1CF1807F98BF80427047A6
:1013100038B5040001D1012032BD00F026F808B92B
:1013200000F014F800F017F800F023F8FFE741612F
:1013300000F001F832BD2068C16841F40051C1607D
:101340000020686020216970A97070470021297011
:10135000204600F0E0BF242068702068C16821F4B6
:101360000051C160204600F098BA04F13C0568784D
:1013700070472068016921F490410161206841694A
:1013800021F02A01704710B500F13C035C78202C55
:1013900018D109B1140001D1012010BD1C78012C15
:1013A00010D001241C7001628284C2840021596023
:1013B00021225A7019700068C26842F08002C2602F
:1013C000002010BD022010BD38B500F130039C7B19
:1013D000202C0FD109B1140001D1012032BD1C7B9A
:1013E000012C07D001241C7300251D60BDE8384086
:1013F00000F099B9022032BD38B5044604F13D052C
:10140000206841692A78212A0CD109060AD5426947
:1014100022F080024261606B08B101F03AFE204682
:1014200000F0B8F9206841696A78222A0CD149068F
:101430000AD5426922F040024261A06B08B101F076
:1014400028FE204600F0AFF9002032BD2068C168B8
:1014500021F01001C1607047416921F040014161F4
:10146000A06B70477CB5044622681168D568536943
:1014700011F00F0007D188065FD5AB065DD5204679
:10148000BDE87640AEE1D80702D415F4907F54D081
:10149000C80705D5EA0503D5206C40F0010020649B
:1014A000480705D5DA0703D5206C40F00200206418
:1014B000880705D5DA0703D5206C40F004002064C6
:1014C000080707D5AA0601D4D80703D5226C42F035
:1014D00008022264206C00282ED0880604D5A906B4
:1014E00044BF204600F07EF920684069216C0A075D
:1014F00001D440061BD5204600F055F9206841690B
:101500004A060FD5FFF7A8FF60B10FF2CD21416366
:10151000A06B01F0E3FD00280ED0A06B416BBDE88D
:101520007C4008472046BDE8764001F0EEBE2046EC
:1015300001F0EBFE0020206473BD206B012804F154
:101540003D0353D1C80651D5EE064FD50021009179
:10155000156800955168009100985169480624D596
:10156000A16B0868406880B200287AD0A58DA84297
:1015700077DAE0858869202813D0D06820F480705D
:10158000D06000F06FF82068416921F040014161AE
:101590002020587000212163FFF758FFA06B01F055
:1015A00078FDA18DE08D091A1AE0A08DE18D411A18
:1015B000E08D00281CBF88B2002852D0D06820F4EB
:1015C0009070D06020684269520852004261202029
:1015D0005870002222632068C26822F01002C260A4
:1015E0002046BDE87C4089B201F090BE080629D5AE
:1015F0002E0627D51878212833D1A068B0F5805F52
:1016000004BF2069002808D1206A0188C1F30801BD
:101610005160206A811C216204E0206A411C216221
:1016200000785060E08C401EE08480B2C8B9206829
:10163000C16821F08001C1602068C16841F04001AB
:10164000C16073BD48060CD569060AD5D06820F084
:101650004000D060202119702046BDE8764001F09E
:1016600056BE73BD20684169490849004161704711
:101670000146486A09680A6893061BD40021C1859F
:101680000168CA6822F48072CA6001684A69520817
:1016900052004A6101684A6922F040024A612021F1
:1016A00080F83E10026B012A04D10168CA6822F05A
:1016B0001002CA60016B012904BF818D01F026BEB2
:1016C00001F026BE406A016B012918BF01F021BE5E
:1016D000818D490801F01ABE0000000038B5446A47
:1016E0002068406904F13D052978212906D10106C9
:1016F00004D50022E284204600F04CF821684869B5
:101700006978222906D1400604D50021E1852046CA
:1017100000F049F8206C40F0100020642046BDE83D
:10172000324001F0F2BDF8B50446134604F13C0521
:10173000A162A385002068602222AA707448A26B6F
:101740009062A26B7348D062A26B73481063002052
:10175000A66B70630A462768A06B391D01F05FFC19
:101760000021009121680A68009200224B680093D2
:1017700000982A70CB6843F48073CB60206841697D
:1017800041F0010141612068416941F0400141613E
:101790000020F2BD0168CA6822F0C002CA602021A0
:1017A00080F83D1070470168CA6822F49072CA60E0
:1017B00001684A69520852004A61016B012904D14B
:1017C0000168CA6822F01002CA60202180F83E1029
:1017D0000022026370470000406A0021C185C18475
:1017E00001F093BD1CB590F83E10222953D18168B9
:1017F000826AB1F5805F0AD1016969B903685968E5
:10180000C1F308011180826A911C81620FE00029F6
:1018100004BF0169002902D10368596803E0016827
:10182000496801F07F011170816A4A1C8262C18D92
:10183000491EC18589B261BB0168CA6822F02002D5
:10184000CA600168CA6822F48072CA6001684A6985
:10185000520852004A61202180F83E10026B012A92
:1018600015D1002101630168CA6822F01002CA6024
:1018700002681168CB0606D5002400941368009313
:10188000526800920099818D01F040FD01E001F065
:101890003FFD002016BD022016BD10B5044622688B
:1018A0001169E06821F4405101431161D3681B497B
:1018B000A0680B402169034360690B430343D36075
:1018C0005169A06921F440710143516114498A4270
:1018D00002D101F06CFA01E001F061FA62681921AD
:1018E00048439200B0FBF2F16423B1FBF3F203FB37
:1018F000121109013231B1FBF3F000F0F00101EBFC
:101900000211226800F00F004018906010BD000026
:1019100071160008C5160008DD160008F3E9FFFF80
:1019200000380140C1F30A5340F2FE329B1A14DD25
:10193000D3F120034FEAE17208DDC90241EA5051B8
:1019400041F00040D84080185040704703F2E13029
:1019500010B1D24382F00040704700207047000071
:1019600080B50748016841F010010160032000F0D4
:1019700016F80F2001F0CEFC00F00CFC002002BD98
:10198000002002400901020002D429488154704716
:10199000284B02F00F021A4402F8041C7047264B31
:1019A00019684FF6FF020002114000F4E06008439E
:1019B000224908431860704770B51F4B1C68C4F378
:1019C00002230124C3F10705052D2EBF0F2504FABC
:1019D00005F56D1E1E1D072E34BF0023DB1E29409A
:1019E000994004FA03F3BDE870405B1E1A401143AE
:1019F000C8E7010007D4012200F01F01104B8A4004
:101A0000400943F82020704710B5401EB0F1807F98
:101A100001D3012010BD0B4C60600F214FF0FF304F
:101A2000FFF7B0FF0021A16007202060002010BD5B
:101A300000E400E018ED00E00CED00E00000FA0525
:101A400000E100E010E000E010B5044610460A4650
:101A50000146204601F07EFC204610BD38B504004A
:101A600001D1012032BD00F0BBF818B900F0B4F884
:101A700000F0F3FB2DE090F83D10012901D001208A
:101A80007047022180F83D100168CA6842F00102E7
:101A9000CA600068DFF85011884218BFB0F1804F6B
:101AA00007D0DFF8481188421CBFDFF8442190427C
:101AB00009D1816801F00701062908D0016841F0C9
:101AC0000101016003E0026842F0010202600020AF
:101AD000704702206870211D206800F0EEF9012097
:101AE000A872A870E87028716871A871E8712872EE
:101AF00068726870002032BD38B5040001D1012041
:101B000032BD00F06DF818B900F066F801F055FC30
:101B1000DFE710B500F05CF809B9027807E00429A6
:101B200008BF427803D008290CBF8278C278012A06
:101B300001D0012010BD11B9022202700AE004296F
:101B400002D10222427005E0082907BF02228270FA
:101B50000223C37000F025F800F02CF818BFB1F193
:101B6000804F06D000F00FF81CBFDFF884209142B0
:101B700005D100F011F804D000F009F801E000F000
:101B800014F8002010BDDFF8640081427047086837
:101B900040F0010008607047886800F007000628E0
:101BA00070472068012200F08ABA0A6842F00102F8
:101BB0000A6070472168DFF83000814205D1DFF804
:101BC00034100A6842F400420A602168814270477A
:101BD000044604F13E0070470021297020467047FA
:101BE00004F13C0568787047002C01400004004077
:101BF00000080040442C014010B5044620680169EB
:101C00008A0715D5C1688A0712D56FF002010161F4
:101C100001222277806910F0030F204602D001F0E4
:101C2000CDFB03E001F0CBFB00F087F8002020772C
:101C3000206801694A0715D5C1684A0712D56FF0B7
:101C40000401016102222277806910F4407F20465E
:101C500002D001F0B3FB03E001F0B1FB00F06DF83E
:101C600000202077206801690A0715D5C1680A0796
:101C700012D56FF00801016104222277C06910F0CB
:101C8000030F204602D001F099FB03E001F097FB1F
:101C900000F053F80020207720680169CA0615D5A6
:101CA000C168CA0612D56FF01001016108222277BF
:101CB000C06910F4407F204602D001F07FFB03E0B2
:101CC00001F07DFB00F039F80020207720680169E1
:101CD000CA0708D5C168CA0705D56FF001010161BF
:101CE0002046FEF751FC206801690A0608D5C16844
:101CF0000A0605D56FF080010161204601F060FB06
:101D0000206801694A0608D5C1684A0605D56FF002
:101D100040010161204601F054FB206801698A06F8
:101D20000AD5C1688A0607D56FF0200101612046F7
:101D3000BDE8104001F046BB10BD204601F043BB9A
:101D400038B500F057F801D1022032BD012084F8E7
:101D50003C0032B1042A15D0082A25D00C2A34D0F0
:101D600044E0206800F0D8F82168886940F0080055
:101D70008861886920F0040088618A6928690243C3
:101D80008A6133E0206800F0ECF82068816941F452
:101D900000618161816921F48061816181692A69C1
:101DA00041EA0221816121E0206800F003F9216805
:101DB000C86940F00800C861C86920F00400C86123
:101DC000CA6928690243CA6110E0206800F01AF964
:101DD0002068C16941F40061C161C16921F4806179
:101DE000C161C1692A6941EA0221C161002084F808
:101DF0003C0032BD04460D4694F83C000128704773
:101E000038B500F04EF801D1022032BD012020701B
:101E100002226270DFF82C022A6893680340936004
:101E20000868020018BF10282DD0202818BF3028BD
:101E300029D0402823D0502816D0602818D07028E8
:101E400003D0B0F5005F07D021E000F025F8286846
:101E5000816841F0770105E000F01EF8286881688C
:101E600041F48041816012E000F012F850210BE053
:101E7000CA684968286800F0FEF8602104E000F0B4
:101E800007F8402100E00146286800F006F90EE05E
:101E9000CA6849682868DFE0CB684A6889682868AA
:101EA00003E1054605F13C04207801287047012034
:101EB000607000212170002032BD70B5624E036851
:101EC000624C634DB04218BFB0F1804F03D0A842BE
:101ED00018BFA04209D14A6823F070031343B042EF
:101EE0001CBFB0F1804FA84201D0A04203D1CA6804
:101EF00023F4407313434A6923F0800313430360C0
:101F0000B0428B68C3620A68826202D10969514A91
:101F100011600123436170BD70B5026A520852001E
:101F20000262066A446885690B688A6825F0730551
:101F30001D4326F002061643434B98420BD1CA6854
:101F40004B6926F0080624F4407416438A691C4342
:101F500026F00406144344608561496841630662C3
:101F600070BD70B5026A384E22F010020262B042B3
:101F7000056A436884690A6824F4E64444EA022452
:101F80008A6825F0200545EA02150DD1CA684E6918
:101F900025F0800545EA02158A6923F4406316435B
:101FA00025F0400543EA8603436084614968816304
:101FB000056270BD70B5026A22F480720262056A21
:101FC0004368C4690A688E6824F0730414431E4A87
:101FD00025F40075904245EA06250DD1CA684E6980
:101FE00025F4006545EA02258A6923F44053164327
:101FF00025F4806543EA06134360C4614968C16300
:10200000056270BD70B5026A0F4E22F48052026202
:10201000B042046A4268C3690D6823F4E64343EAA8
:1020200005238D6824F4005444EA053404D14D6935
:1020300022F4804242EA85124260C3614968016429
:10204000046270BD8800FFFF002C014000080040C2
:1020500000040040302C014010B5036A046A640893
:102060006400046223F00A03846924F0F00444EA63
:10207000021484612EE010B5036A23F0100303629A
:102080008369046A23F4704343EA023324F0A00412
:10209000836144EA0114046210BD826822F0700278
:1020A000114341F007018160704710B5846824F442
:1020B0007F442143114341EA0321816010BD10B5E3
:1020C00001F01F01036A01248C40A343036202FA5A
:1020D00001F1036A1943016210BD000070B500F1FF
:1020E0003C031A78012A01D1022070BD01221A7026
:1020F00002245C7005686E68AC680A6826F0700699
:1021000016436E6002680C48824218BFB2F1804FDD
:1021100005D00A4882421CBF064DAA4204D1486835
:1021200024F0800404439460012159700020187049
:1021300070BD000000080040002C01400004004079
:1021400010B590F83C20012A01D1022010BD0122D7
:1021500080F83C20CC688A684B6824F440741443AF
:1021600024F480641C430A680B6924F4006414435B
:1021700024F480541C434A69C96924F4005414436C
:10218000026824F480440C435464002380F83C30FB
:10219000002010BDDFF8140381B0016841F0010197
:1021A0000160026802F0010200920099426842F068
:1021B00080524260406800F0805000900098DFF844
:1021C000F002016821F0E06141F00071016001B0AE
:1021D000704730B585B000F098F82168DFF8D40278
:1021E000814238D1DFF8C402DFF8CC52016841F4F3
:1021F000007101600323026802F4007200920099EA
:10220000026842F0040202600122006800F004004B
:10221000009000990192029301A9DFF8A002FEF755
:1022200009FDDFF89C022860002169608020E860D9
:102230004FF4807129614FF4806000226861202191
:10224000AA60A961EA61284600F0BCFE08B1FEF769
:10225000C0FC25626C6205B030BD80B50068994A4B
:102260009249904209D1086840F40060086009680A
:1022700001F400610091009801BDB0F1804F0FD1D1
:10228000486840F0010048600022486800F0010002
:102290000090002100981C20FFF78EFB1C2011E00D
:1022A000894A904212D1486840F0020048600022FA
:1022B000486800F002000090002100981D20FFF700
:1022C0007BFB1D20BDE80240FFF793BB01BD18B5A5
:1022D00085B000F01AF821687A48814213D173481A
:1022E000016841F0040101604FF44071006800F0A2
:1022F000040000900222009870480191029204921A
:1023000001A9FEF797FC06B010BD0446102200217B
:1023100001A8FFF799BB78B585B0044610220021CB
:102320006846FFF791FB2168684A694D694E5F482E
:10233000914225D1016841F480410160026802F4B4
:102340008042049200F086F8402100F089F8802055
:1023500000F0A3F85648604E016841F0E06141F09A
:102360000401016005F1280000F088F808B1FEF7CB
:1023700030FC00F06AF82520FFF71EFB252060E006
:10238000564A91422ED141684C4E41F40031416091
:10239000416801F4003104910499026842F004029A
:1023A00002600421006800F00400049002220498F6
:1023B000009101920321039130466946FEF73AFCF1
:1023C000082000F06AF8464E05F13C0000F056F88F
:1023D00008B1FEF7FEFB00F038F82620FFF7ECFA14
:1023E00026202EE03F4A91422DD1416841F48021C0
:1023F0004160416801F48021049100F02BF84FF412
:10240000806100F02DF84FF4006000F046F80020E5
:102410000021354E70608020F060B1603161002095
:1024200070612021F061B1613560304600F0CAFD75
:1024300008B1FEF7CEFB00F008F82720FFF7BCFA42
:102440002720FFF7D6FA06B070BDA663746200229B
:10245000002170470499026842F008020260704748
:10246000006800F008000490022204980091019294
:102470000321039130466946FEF7DCBB3060002142
:102480008020F0607160B1603161002070612021B6
:10249000F061B161304600F095BD002100900191DE
:1024A000029130466946FEF7C5BB00001810024095
:1024B0000400014000240140F00100200008014018
:1024C00008000240002C0140000400400038014098
:1024D00030000240000C014078020020004400401F
:1024E000BC0200200048004000030020F8B504466C
:1024F00000270026002C71D004F12405686820B95B
:10250000AE6028702046FFF764FE204600F0C0F958
:102510006968CA065ED401005CD1696821F48851FB
:1025200041F0020169606368E269217B1343A2689C
:10253000B2F5807F14BF012A4FF48077227D012AF3
:1025400043EA41030FD131B9A169491E490341F45E
:1025500000610F4307E0696841F020016960A968E4
:1025600041F00101A96021684A6822F469421743D9
:102570004F602268DFF8F41297680F401F4397609E
:10258000A168B1F5807F18BF012902D12669761EA6
:1025900036052168CA6A22F470021643CE622468A6
:1025A000DFF8CC12A2680A409A4208D10023AB603F
:1025B000696821F0020141F001016960F2BD6868BB
:1025C00020F0020040F010006860A86840F00100B0
:1025D000A86003E0686840F0100068600120F2BD68
:1025E000044604F12405287801287047012028704A
:1025F000204604E12DE9F047044689462068DFF8CB
:102600008412DFF87882DFF87872884218BF40457C
:10261000924603D1386810F4702F68D1FFF7E1FFBC
:1026200008BF022065D0FFF7E1FF002806465BD116
:102630006968DFF84402014041F4807169602068F4
:10264000404518D1396811F4702F14D0686840F4EF
:10265000801068603968480505D5696821F4005123
:1026600041F4805169606868C10446BFA86820F0E1
:10267000060000200DE0696821F48011696040685F
:102680004105F0D5686820F4005040F4805068603F
:10269000E9E7A860002129705346226A0FF2412021
:1026A0009062216A0FF28120C862216A0FF28120B4
:1026B00008636FF00200226810604A462068816853
:1026C00041F480718160206800F14C01206A00F0C3
:1026D000A6FC206800F00FF881680CBF41F4A0014F
:1026E00041F48011816003E00020287000E00126A1
:1026F0003046BDE8F087816801F46021B1F5602FB4
:102700007047F8B50A46002100F1240300911C78B7
:10271000012C01D10220F2BD01241C701F27546836
:1027200015680668072C08D2641E04EB8404D6F8EA
:1027300034C000F05EF8756312E00D2C08D2E41F7F
:1027400004EB8404D6F830C000F053F8356307E09A
:102750000D3C04EB8404D6F82CC000F04AF8F56276
:1027600007271668946805680A2E08D30A3E06EB08
:102770004606D5F80CC000F036F8EC6006E006EB33
:102780004606D5F810C000F02EF82C611468102C05
:1027900018BF112C23D100683A4CA0421AD13A48F4
:1027A00005682C021BD4056845F400050560106817
:1027B000102814D12F4A354D1468B4FBF5F50A20C2
:1027C00045430095009800281EBF0098401E0090C9
:1027D000F8D104E00121586840F020005860002042
:1027E00018700846F2BDB7402CEA0707B4403C43D6
:1027F0007047A7402CEA0707A5403D43704738B50E
:1028000004460020009020688168CA072CD48168A3
:102810001E4A41F00101816016480168B1FBF2F2E5
:10282000009202E00098401E009000980028F9D124
:1028300000F0CAFD054600F04FF815D400F0C4FDC5
:10284000401B0328F7D300F047F8F4D404F1240028
:102850000022416841F010014160816841F00101AE
:1028600081600270012032BD002032BDFDF7E1FF22
:10287000FE0E1FFF9C000020FEF1FFFF002801401C
:1028800004240140002401400824014040420F007C
:1028900038B5044620688168CA071BD58168490895
:1028A0004900816000F090FD054600F015F811D553
:1028B00000F08AFD401B0328F7D300F00DF8F4D593
:1028C000A16A41F01001A162E06A40F00100E062FB
:1028D000012032BD002032BD20688168C8077047E2
:1028E000416A8A6A12F0500F1BD1886A40F4007066
:1028F00088620A68906800F46020B0F5602F04BF19
:10290000087B00280AD1886A20F480708862886A6F
:10291000C20403D4886A40F001008862084600F0CF
:1029200059BD096A0A6B1047406A00F054BD0000A7
:10293000406A816A41F040018162C16A41F004014C
:10294000C16200F049BD00002DE9F843040016D033
:102950002078DFF87064C10713D5706800F00C00B0
:10296000042807D0706800F00C00082841D1706876
:10297000C1033ED53068810303D56068002800F0AC
:1029800064812078DFF84C74810719D5706810F0E5
:102990000C0F07D0706800F00C00082861D1706837
:1029A000C1035ED43068810703D52069012840F057
:1029B0004C813168606921F0F80141EAC001316061
:1029C0002178080740F18180A069DFF80C14002805
:1029D00000F0A68001220A6000F0F6FC0546706A4D
:1029E000810763D400F0F0FC401B0228F7D90320D4
:1029F0002EE16068B0F5803F04D1306840F480304B
:102A0000306014E008B930680AE0B0F5A02F3068F3
:102A100006D140F480203060316841F4803105E017
:102A200020F480303060316821F4802131606068AA
:102A300058B100F0C9FC054630688103A1D400F00C
:102A4000C3FC401B6528F7D3D1E700F0BDFC054669
:102A50003068810395D500F0B7FC401B6528F7D39B
:102A6000C5E72069A8B10121396000F0ADFC054639
:102A70003068810705D400F0A7FC401B0228F7D975
:102A8000B5E73068616920F0F80040EAC1003060C5
:102A900096E7386000F098FC0546316888078FD5C6
:102AA00000F092FC401B0228F7D9A0E7DFF81803DA
:102AB0000168C9084FF47A72B1FBF2F2009200BFCC
:102AC0000098411E00280091F9D1207841076ED569
:102AD000F0690025C10009D4F06940F08050F06130
:102AE0000125F06900F0805000900098DFF8EC823A
:102AF000D8F80000C10520D4D8F8000040F4807058
:102B0000C8F8000000F060FC8146D8F80000C1055C
:102B100013D400F059FCA0EB09006528F5D366E753
:102B2000086000F051FC0546706A8107CDD500F0C1
:102B30004BFC401B0228F7D959E7E068012808D070
:102B400008B9306A09E00528306A06D140F004006F
:102B50003062306A40F0010005E040084000306219
:102B6000306A20F00400306241F28938E06860B1D8
:102B700000F02AFC8146306A810713D400F024FC5F
:102B8000A0EB09004045F6D331E700F01DFC81467B
:102B9000306A810706D500F017FCA0EB090040451C
:102BA000F6D324E71DB1F06920F08050F061E069B0
:102BB00000284CD0716801F00C01082938D0022897
:102BC0002AD100F047F805463068810105D500F0AC
:102BD000FBFB401B0228F7D909E7206AB0F5803FCC
:102BE00005D17168A06821F40031014371607268F9
:102BF000206A616A22F4741202430A43726001205F
:102C000000F029F804463068810120D400F0DCFB94
:102C1000001B0228F7D9EAE600F01CF804463068E9
:102C2000810114D500F0D0FB001B0228F7D9DEE6A5
:102C300001280AD07068226A00F48031914202BFF4
:102C400000F47010616A884201D0012000E0002089
:102C5000BDE8F2830020386600F0B6BB2DE9F041F4
:102C6000040088464ED05E4E00F077F802D200F0A5
:102C70006FF847D12068534D810712D5400703D51F
:102C8000696841F4E06169602078010703D56868EC
:102C900040F4605068606968A06821F0F001014369
:102CA00069602178C80725D56068012802D12968A4
:102CB0008A0303E00228296802D18A0102D421E0B4
:102CC0008A071FD56968890840EA8100686000F0BA
:102CD0007BFB07466868616800F00C00B0EB810F71
:102CE00008D000F071FBC01B41F289318842F1D35A
:102CF00003202BE0306800F00700804504D200F08C
:102D000027F801D0012021E02078410705D56A6825
:102D1000E06822F4E06202436A602178080706D581
:102D20006968206921F4605141EAC001696000F0DE
:102D300019F86A682B49244BC2F30312895CC84016
:102D400018602348006800F0E5FA0020BDE8F08133
:102D50003168C90848EAC1013160306800F00700F5
:102D600040457047204919480A6802F00C03082BB7
:102D700000D0704710B500BF1EA4C2F38343D20336
:102D8000E35C08D5096858431EA3C1F340415A5C6F
:102D9000B0FBF2F010BD18461449484310BD0A4874
:102DA000114A006813681249C3F3022206E006487C
:102DB0000D4A006813680E49C3F3C222895CC840FB
:102DC00070470000001002409C00002000127A00B2
:102DD00098000020000042428004424200700040FF
:102DE00000200240283500080410024000093D0080
:102DF0005435000802030405060708090A0B0C0DE8
:102E00000E0F1010010200002DE9FC410646354D61
:102E10003078C10750D5A8690024C10009D4A86939
:102E200040F08050A8610124A86900F08050009013
:102E300000982D4F3868C10511D4386840F480706F
:102E4000386000F0C1FA80463868C10507D400F048
:102E5000BBFAA0EB08006528F6D303203FE0E86941
:102E600010F440701EBF716801F44071884218D0A0
:102E70001E49E86901220A60002320F440700B60BB
:102E8000E861C0070DD500F09FFA0746E8698107A1
:102E900007D400F099FAC01B41F289318842F5D37A
:102EA000DBE7EA69706822F440720243EA611CB110
:102EB000A86920F08050A8613078810705D52A687C
:102EC000B06822F4404202432A603178C80605D532
:102ED0002968F06821F48001014329600020BDE8E1
:102EE000F68100000410024000700040400442429D
:102EF000841A71EB030603D2001BB141121973410E
:102F00004FF4001C1CEB410F34BF7CEB430442E048
:102F10000C0DA4EB1356352E4FDC45EAC323DB0A18
:102F200045EAC121C912B6F120050DDD63FA05F6A7
:102F3000EB4086EA0305124218BF45F00105C018B0
:102F400051F100010CD213E062FA06F5F24055404F
:102F5000F3415A40B340F3405A408018594107D3D7
:102F600049085FEA30005FEA350528BF45F00105F2
:102F700001F58011420875F1004250F1000041EB6B
:102F800004514E0016F5001F70BC38BF704700207A
:102F9000090D090570471CEB410F10D252EA430698
:102FA0000BD0BCEB410F05D80C0DAB43661E342E85
:102FB000B6DD02E0AB438018594170BC704770BC6D
:102FC0007047000030B508B9012030BD0468DFF853
:102FD000F4120919142200F13803B1FBF2F2920045
:102FE0009A600222DFF8E012596080F821202568FB
:102FF000416882686FF30D150D43C168154302697E
:103000000D434169154382690D43C16915430D4361
:10301000256000241C6000F0ABF8002030BDF8B53E
:103020000446002594F82000012801D10220F2BDB9
:1030300094F821600120012E84F8200024D1022080
:1030400004F12C0684F82100F560206807687F08E9
:103050007F000760204600F047F92168306820B102
:103060000A6842F00E020A6008E0086820F00400D6
:1030700008602068016841F00A0101602068016869
:1030800041F00101016002E084F820500225284649
:10309000F2BD10B590F82110022900F1380206D0D7
:1030A00004231360002180F82010012010BD016866
:1030B0000B6823F00E030B60012301680C686408A1
:1030C00064000C60916852688B40536001210022BB
:1030D00080F8211080F82020002010BD38B590F82D
:1030E00021200024022A00F1340103D0042048608A
:1030F00001243BE00268136823F00E0313600268AA
:10310000DFF8C83115686D086D00156002689A42D5
:1031100008BF012222D0DFF8B8319A4208BF10223E
:103120001CD0DFF8B0319A4208BF4FF4807215D03E
:10313000DFF8A4319A4208BF4FF480520ED0DFF876
:103140009C319A4208BF4FF4803207D0DFF89031AB
:103150009A420CBF4FF480124FF08072DFF8843136
:103160001A6000F005F8096801B18847204632BDB1
:10317000012280F8212080F8204070472DE9F84F87
:1031800000F1280204275169554BD1F800E0056889
:1031900054492E68D2F818A0504CDFF83C81DFF873
:1031A0003491DFF82CB1DFF824C107FA0AF71EEAE0
:1031B000070F2DD077072BD52E68B60603D42E68BF
:1031C00026F004062E600568654508BF042318D064
:1031D0005D4508BF402314D04D4508BF4FF48063C0
:1031E0000FD0454508BF4FF480430AD0A54208BF21
:1031F0004FF4802305D09D420CBF4FF480034FF065
:1032000080630B605168002958D0BDE8F44F08472F
:10321000022707FA0AF71EEA070F32D0B70730D5A0
:103220002E68B60606D42E6826F00A062E60012502
:1032300080F821500568654508BF022318D05D4518
:1032400008BF202314D04D4508BF4FF400730FD0A2
:10325000454508BF4FF400530AD0A54208BF4FF4BC
:10326000003305D09D420CBF4FF400134FF00073A4
:103270000B60002180F820101168F9B1BDE8F44F0F
:103280000847082101FA0AF11EEA010F16D031079A
:1032900014D52B6823F00E032B6001249169536928
:1032A0008C405C600121116180F82110002180F8C0
:1032B0002010916811B1BDE8F44F0847BDE8F18FC7
:1032C00000000000F8FFFDBF0000024008000240BF
:1032D0001C000240300002404400024058000240FE
:1032E0006C0002400400024070B5046CC66B0125FE
:1032F000A5407560046863604068102802D1A26030
:10330000E16070BDA160E26070BD704770477047BA
:103310007047704738B50D4D0D4B2A7804464FF471
:103320007A711868B1FBF2F2B0FBF2F0FEF76CFBB9
:1033300050B9102C08D2002221464FF0FF30FEF782
:103340003BFBAC60002032BD012032BD900000206C
:103350009C00002062F30F2262F31F42401810F01D
:10336000030308D0C91A1FD3DB0748BF00F8012D9B
:1033700028BF20F8022D130030B41446154610392A
:1033800028BF20E93C00FAD8490728BF20E90C00F3
:1033900048BF40F8042D890028BF20F8022D48BFFF
:1033A00000F8012D30BC7047C91818BF00F8012D76
:1033B000CB0728BF00F8012D704770477047704752
:1033C000704770477047704701484068704700BFBA
:1033D000900000207047704770470000FEE7FEE74E
:1033E000FEE7FEE7FEE770477047704700F02EB833
:1033F0000D48FFF7C3BE0D48FFF7C0BE0C48FFF7EE
:10340000BDBE0C48FFF7BABE0B48FEF7F5BB0B4834
:10341000FEF7F2BB0A48FEF725B80A48FEF722B8C5
:103420000948FEF71FB80000F0010020000300204B
:1034300078020020BC02002060010020A8010020CA
:1034400028000020B00000203402002002494A6811
:10345000087882184A6070479000002030B50168F3
:1034600084684218416802EB5103C90703D54C44F4
:1034700001E0491C05D19A420AD012F9011B12F849
:10348000015B002904F8015BF3D4491EF7D5F2E78C
:103490000C3030BD10B5074979441831064C7C44D6
:1034A000163404E00A68081D114488470146A14209
:1034B000F8D110BD08000000240000001BD7FFFF5A
:1034C000EC020000A00000200000000091FFFFFFC0
:1034D000140100002E0000000000002000F00DF894
:1034E000002801D0FFF7D6FFAFF300800020AFF334
:1034F0000080FDF7E6F800F002F80120704700F0C8
:1035000001B800000746384600F002F8FBE700006B
:1035100080B5AFF30080024A11001820ABBEFBE774
:1035200026000200704700000000000000000000BC
:1035300001020304060708090148804701480047C3
:103540002535000849350008AFF30080AFF300804F
:10355000FFF7C4FF0000000001020304FFF7FEBFF5
:10356000FFF7FEBFFFF7FEBFFFF7FEBFFFF7FEBF8F
:10357000FFF7FEBFFFF7FEBFFFF7FEBFFFF7FEBF7F
:10358000FFF7FEBFFFF7FEBFFFF7FEBFFFF7FEBF6F
:10359000FFF7FEBFFFF7FEBFFFF7FEBFFFF7FEBF5F
:1035A000FFF7FEBFFFF7FEBFFFF7FEBFFFF7FEBF4F
:1035B000FFF7FEBFFFF7FEBFFFF7FEBFFFF7FEBF3F
:1035C000FFF7FEBFFFF7FEBFFFF7FEBFFFF7FEBF2F
:1035D000FFF7FEBFFFF7FEBFFFF7FEBFFFF7FEBF1F
:1035E000FFF7FEBFE800016101AA000064E10000EE
:0B35F00001F9000010FC000224F400B0
:040000050800354971
:00000001FF
